{
    "abi": [
        {
            "type": "function",
            "name": "commitMove",
            "inputs": [
                {
                    "name": "gameId",
                    "type": "uint256",
                    "internalType": "uint256"
                },
                {
                    "name": "moveHash",
                    "type": "bytes32",
                    "internalType": "bytes32"
                }
            ],
            "outputs": [],
            "stateMutability": "nonpayable"
        },
        {
            "type": "function",
            "name": "createGame",
            "inputs": [
                {
                    "name": "_creator",
                    "type": "address",
                    "internalType": "address"
                }
            ],
            "outputs": [
                {
                    "name": "",
                    "type": "uint256",
                    "internalType": "uint256"
                }
            ],
            "stateMutability": "nonpayable"
        },
        {
            "type": "function",
            "name": "endGame",
            "inputs": [
                {
                    "name": "gameId",
                    "type": "uint256",
                    "internalType": "uint256"
                },
                {
                    "name": "gameHash",
                    "type": "bytes32",
                    "internalType": "bytes32"
                }
            ],
            "outputs": [],
            "stateMutability": "nonpayable"
        },
        {
            "type": "function",
            "name": "getActiveGames",
            "inputs": [],
            "outputs": [
                {
                    "name": "",
                    "type": "uint256[]",
                    "internalType": "uint256[]"
                }
            ],
            "stateMutability": "view"
        },
        {
            "type": "function",
            "name": "getGame",
            "inputs": [
                {
                    "name": "gameId",
                    "type": "uint256",
                    "internalType": "uint256"
                }
            ],
            "outputs": [
                {
                    "name": "id",
                    "type": "uint256",
                    "internalType": "uint256"
                },
                {
                    "name": "players",
                    "type": "address[]",
                    "internalType": "address[]"
                },
                {
                    "name": "status",
                    "type": "uint8",
                    "internalType": "enum UnoGame.GameStatus"
                },
                {
                    "name": "startTime",
                    "type": "uint256",
                    "internalType": "uint256"
                },
                {
                    "name": "endTime",
                    "type": "uint256",
                    "internalType": "uint256"
                },
                {
                    "name": "gameHash",
                    "type": "bytes32",
                    "internalType": "bytes32"
                },
                {
                    "name": "moves",
                    "type": "bytes32[]",
                    "internalType": "bytes32[]"
                }
            ],
            "stateMutability": "view"
        },
        {
            "type": "function",
            "name": "getNotStartedGames",
            "inputs": [],
            "outputs": [
                {
                    "name": "",
                    "type": "uint256[]",
                    "internalType": "uint256[]"
                }
            ],
            "stateMutability": "view"
        },
        {
            "type": "function",
            "name": "joinGame",
            "inputs": [
                {
                    "name": "gameId",
                    "type": "uint256",
                    "internalType": "uint256"
                },
                {
                    "name": "_joinee",
                    "type": "address",
                    "internalType": "address"
                }
            ],
            "outputs": [],
            "stateMutability": "nonpayable"
        },
        {
            "type": "function",
            "name": "startGame",
            "inputs": [
                {
                    "name": "gameId",
                    "type": "uint256",
                    "internalType": "uint256"
                }
            ],
            "outputs": [],
            "stateMutability": "nonpayable"
        },
        {
            "type": "event",
            "name": "GameCreated",
            "inputs": [
                {
                    "name": "gameId",
                    "type": "uint256",
                    "indexed": true,
                    "internalType": "uint256"
                },
                {
                    "name": "creator",
                    "type": "address",
                    "indexed": false,
                    "internalType": "address"
                }
            ],
            "anonymous": false
        },
        {
            "type": "event",
            "name": "GameEnded",
            "inputs": [
                {
                    "name": "gameId",
                    "type": "uint256",
                    "indexed": true,
                    "internalType": "uint256"
                }
            ],
            "anonymous": false
        },
        {
            "type": "event",
            "name": "GameStarted",
            "inputs": [
                {
                    "name": "gameId",
                    "type": "uint256",
                    "indexed": true,
                    "internalType": "uint256"
                }
            ],
            "anonymous": false
        },
        {
            "type": "event",
            "name": "MoveCommitted",
            "inputs": [
                {
                    "name": "gameId",
                    "type": "uint256",
                    "indexed": true,
                    "internalType": "uint256"
                },
                {
                    "name": "moveHash",
                    "type": "bytes32",
                    "indexed": false,
                    "internalType": "bytes32"
                }
            ],
            "anonymous": false
        },
        {
            "type": "event",
            "name": "PlayerJoined",
            "inputs": [
                {
                    "name": "gameId",
                    "type": "uint256",
                    "indexed": true,
                    "internalType": "uint256"
                },
                {
                    "name": "player",
                    "type": "address",
                    "indexed": false,
                    "internalType": "address"
                }
            ],
            "anonymous": false
        },
        {
            "type": "error",
            "name": "ReentrancyGuardReentrantCall",
            "inputs": []
        }
    ],
    "bytecode": {
        "object": "0x6080604052348015600f57600080fd5b506001600055610ea7806100246000396000f3fe608060405234801561001057600080fd5b50600436106100885760003560e01c8063a2f77bcc1161005b578063a2f77bcc146100f4578063cc3415d81461011a578063e5ed1d5914610122578063ead00e021461013557600080fd5b80631b76929c1461008d57806326826f62146100ab578063474d0b5a146100c05780636e1ef8b2146100e1575b600080fd5b610095610148565b6040516100a29190610b96565b60405180910390f35b6100be6100b9366004610bd9565b6101a0565b005b6100d36100ce366004610c12565b610293565b6040519081526020016100a2565b6100be6100ef366004610bd9565b610417565b610107610102366004610c34565b6104ff565b6040516100a29796959493929190610cc1565b610095610618565b6100be610130366004610c34565b610790565b6100be610143366004610d50565b6108af565b6060600280548060200260200160405190810160405280929190818152602001828054801561019657602002820191906000526020600020905b815481526020019060010190808311610182575b5050505050905090565b8160016000821180156101b557506001548211155b6101da5760405162461bcd60e51b81526004016101d190610d7c565b60405180910390fd5b60008281526003602052604090208160028111156101fa576101fa610c4d565b60028083015460ff169081111561021357610213610c4d565b146102305760405162461bcd60e51b81526004016101d190610da5565b6000858152600360209081526040808320600681018054600181018255908552938390209093018790555186815287917f8da9ca3f91d5711e050b7b3cd914a0e574d11bf428d5150a622d83903d479d5c910160405180910390a2505050505050565b600061029d610a09565b600180549060006102ad83610dfd565b9091555050600180546040805160e08101825282815281516000808252602080830185528084019283528385018290524260608501526080840182905260a084018290528451828152808201865260c085015285825260038152939020825181559051805194959294919361032793850192910190610ae1565b5060408201518160020160006101000a81548160ff0219169083600281111561035257610352610c4d565b0217905550606082015160038201556080820151600482015560a0820151600582015560c08201518051610390916006840191602090910190610b46565b5050600280546001810182556000919091527f405787fa12a823e0f2b7631cc41b3ba8828b3321ca811111fa75cd3aa3bb5ace01829055506040516001600160a01b038416815281907fc3e0f84839dc888c892a013d10c8f9d6dc05a21a879d0ce468ca558013e9121c9060200160405180910390a290506104126001600055565b919050565b81600160008211801561042c57506001548211155b6104485760405162461bcd60e51b81526004016101d190610d7c565b600082815260036020526040902081600281111561046857610468610c4d565b60028083015460ff169081111561048157610481610c4d565b1461049e5760405162461bcd60e51b81526004016101d190610da5565b60008581526003602052604090206002808201805460ff19169091179055600581018590556104cc86610a33565b60405186907fce24807f7e4b60b4e641462f13029fa5e5f79075bbc3f8e5cd43ecd19661d76090600090a2505050505050565b6000606060008060008060606000600360008a815260200190815260200160002090508060000154816001018260020160009054906101000a900460ff1683600301548460040154856005015486600601858054806020026020016040519081016040528092919081815260200182805480156105a557602002820191906000526020600020905b81546001600160a01b03168152600190910190602001808311610587575b50505050509550808054806020026020016040519081016040528092919081815260200182805480156105f757602002820191906000526020600020905b8154815260200190600101908083116105e3575b50505050509050975097509750975097509750975050919395979092949650565b60025460609060009067ffffffffffffffff81111561063957610639610e16565b604051908082528060200260200182016040528015610662578160200160208202803683370190505b5090506000805b6002548110156106f65760006002828154811061068857610688610e2c565b60009182526020822001549150600082815260036020526040902060029081015460ff16908111156106bc576106bc610c4d565b036106ed57808484815181106106d4576106d4610e2c565b6020908102919091010152826106e981610dfd565b9350505b50600101610669565b5060008167ffffffffffffffff81111561071257610712610e16565b60405190808252806020026020018201604052801561073b578160200160208202803683370190505b50905060005b828110156107885783818151811061075b5761075b610e2c565b602002602001015182828151811061077557610775610e2c565b6020908102919091010152600101610741565b509392505050565b80600080821180156107a457506001548211155b6107c05760405162461bcd60e51b81526004016101d190610d7c565b60008281526003602052604090208160028111156107e0576107e0610c4d565b60028083015460ff16908111156107f9576107f9610c4d565b146108165760405162461bcd60e51b81526004016101d190610da5565b600084815260036020526040902060018101546002111561086e5760405162461bcd60e51b81526020600482015260126024820152714e6f7420656e6f75676820706c617965727360701b60448201526064016101d1565b60028101805460ff1916600117905560405185907f50ad08f58a27f2851d7e3a1b3a6a46b290f2ce677e99642d30ff639721e7779090600090a25050505050565b6108b7610a09565b81600080821180156108cb57506001548211155b6108e75760405162461bcd60e51b81526004016101d190610d7c565b600082815260036020526040902081600281111561090757610907610c4d565b60028083015460ff169081111561092057610920610c4d565b1461093d5760405162461bcd60e51b81526004016101d190610da5565b60008581526003602052604090206001810154600a1161098e5760405162461bcd60e51b815260206004820152600c60248201526b11d85b59481a5cc8199d5b1b60a21b60448201526064016101d1565b600181810180549182018155600090815260209081902090910180546001600160a01b0319166001600160a01b03881690811790915560405190815287917f87969bc7faf902221a147b95ceba76e011c5efb0339a0a8ee7a2bb82d9cfbbd6910160405180910390a250505050610a056001600055565b5050565b600260005403610a2c57604051633ee5aeb560e01b815260040160405180910390fd5b6002600055565b60005b600254811015610a05578160028281548110610a5457610a54610e2c565b906000526020600020015403610ad95760028054610a7490600190610e42565b81548110610a8457610a84610e2c565b906000526020600020015460028281548110610aa257610aa2610e2c565b6000918252602090912001556002805480610abf57610abf610e5b565b600190038181906000526020600020016000905590555050565b600101610a36565b828054828255906000526020600020908101928215610b36579160200282015b82811115610b3657825182546001600160a01b0319166001600160a01b03909116178255602090920191600190910190610b01565b50610b42929150610b81565b5090565b828054828255906000526020600020908101928215610b36579160200282015b82811115610b36578251825591602001919060010190610b66565b5b80821115610b425760008155600101610b82565b602080825282518282018190526000918401906040840190835b81811015610bce578351835260209384019390920191600101610bb0565b509095945050505050565b60008060408385031215610bec57600080fd5b50508035926020909101359150565b80356001600160a01b038116811461041257600080fd5b600060208284031215610c2457600080fd5b610c2d82610bfb565b9392505050565b600060208284031215610c4657600080fd5b5035919050565b634e487b7160e01b600052602160045260246000fd5b60038110610c8157634e487b7160e01b600052602160045260246000fd5b9052565b600081518084526020840193506020830160005b82811015610cb7578151865260209586019590910190600101610c99565b5093949350505050565b600060e0820189835260e060208401528089518083526101008501915060208b01925060005b81811015610d0e5783516001600160a01b0316835260209384019390920191600101610ce7565b5050610d1d604085018a610c63565b8760608501528660808501528560a085015283810360c0850152610d418186610c85565b9b9a5050505050505050505050565b60008060408385031215610d6357600080fd5b82359150610d7360208401610bfb565b90509250929050565b6020808252600f908201526e125b9d985b1a590819d85b59481251608a1b604082015260600190565b60208082526022908201527f47616d65206973206e6f7420696e207468652072657175697265642073746174604082015261757360f01b606082015260800190565b634e487b7160e01b600052601160045260246000fd5b600060018201610e0f57610e0f610de7565b5060010190565b634e487b7160e01b600052604160045260246000fd5b634e487b7160e01b600052603260045260246000fd5b81810381811115610e5557610e55610de7565b92915050565b634e487b7160e01b600052603160045260246000fdfea2646970667358221220b1d960e76ab0161d28b160c5f84d631a362f834ee1f61627fd146d34541a434864736f6c634300081c0033",
        "linkReferences": {}
    },
    "methodIdentifiers": {
        "commitMove(uint256,bytes32)": "26826f62",
        "createGame(address)": "474d0b5a",
        "endGame(uint256,bytes32)": "6e1ef8b2",
        "getActiveGames()": "1b76929c",
        "getGame(uint256)": "a2f77bcc",
        "getNotStartedGames()": "cc3415d8",
        "joinGame(uint256,address)": "ead00e02",
        "startGame(uint256)": "e5ed1d59"
    },
    "id": 21
}